:020000040800F2
:10000000B06F0020690300082B3D00084939000843
:10001000293D0008EB0F0008956300080000000070
:10002000000000000000000000000000A90200081D
:1000300019110008000000000503000889430008AA
:100040008303000883030008830300088303000878
:1000500083030008830300081B1100082111000816
:10006000271100082D110008331100088303000830
:10007000911000088303000883030008830300082D
:100080008303000883030008830300088303000838
:100090008303000883030008830300083911000864
:1000A000494400086D4400086144000855440008B4
:1000B00079440008830300088303000883030008D1
:1000C00083030008830300088303000883030008F8
:1000D00083030008830300088303000883030008E8
:1000E00083030008830300088303000883030008D8
:1000F00083030008830300088303000883030008C8
:1001000083030008830300088303000883030008B7
:1001100083030008830300088303000883030008A7
:100120008303000883030008830300088303000897
:100130008303000883030008830300088303000887
:100140008303000883030008830300088303000877
:100150008303000883030008830300088303000867
:100160008303000883030008830300088303000857
:10017000830300082D3D00088303000800000000F1
:100180008303000883030008830300088303000837
:100190008303000883030008830300088303000827
:1001A00083030008830300088303000800F002F8BB
:1001B00000F06AF80AA090E8000C82448344AAF197
:1001C0000107DA4501D100F05FF8AFF2090EBAE895
:1001D0000F0013F0010F18BFFB1A43F0010318477B
:1001E0000C8A00002C8A00000A444FF0000C10F822
:1001F000013B13F0070408BF10F8014B1D1108BFA5
:1002000010F8015B641E05D010F8016B641E01F844
:10021000016BF9D113F0080F1EBF10F8014BAD1C94
:100220000C1B09D16D1E58BF01F801CBFAD505E0B2
:1002300014F8016B01F8016B6D1EF9D59142D6D30C
:10024000704700000023002400250026103A28BF34
:1002500078C1FBD8520728BF30C148BF0B60704738
:10026000642900F06181002070471FB508F0EFFBA2
:1002700000F070FE04000020002108F081F8401C0E
:1002800060601FBD10B510BD00F02CFE1146FFF7D9
:10029000ECFF06F0FBF800F053FE03B4FFF7F2FFAB
:1002A00003BC00F05BFE00002C4B19680868B0E846
:1002B000F04F80F30988BFF36F8F4FF0000080F399
:1002C000118870470000000008480068006880F34B
:1002D00008884FF0000080F3148862B661B6BFF35F
:1002E0004F8FBFF36F8F00DF00BF00BF08ED00E04E
:1002F000DFF80C00016841F470010160704700BF35
:1003000088ED00E0EFF30980BFF36F8F134B1A689D
:100310001EF0100F08BF20ED108A20E9F04F10608A
:1003200009B44FF0500080F31188BFF34F8FBFF333
:100330006F8F07F0BFF94FF0000080F3118809BC00
:1003400019680868B0E8F04F1EF0100F08BFB0EC55
:10035000108A80F30988BFF36F8F7047A0000020D8
:10036000EFF30580704700000948804709480047BF
:10037000FEE7FEE7FEE7FEE7FEE7FEE7FEE7FEE755
:10038000FEE7FEE704480549054A064B70470000B2
:1003900039440008AD010008B0690020B06F0020AA
:1003A000B06B0020B06B002053EA020C00F06980B3
:1003B0002DE9F04B4FF00006002B1FBFB3FA83F579
:1003C00003FA05F424FA05F65E4012BF1643B2FAAA
:1003D00082F502FA05F4C5F120051EBF22FA05FCDC
:1003E00044EA0C04203556EA044C4FEA144418BF82
:1003F000641C4FF000084FF00009904271EB030CB1
:1004000039D3002919BFB1FA81F701FA07F6B0FA1A
:1004100080F700FA07F6C7F120071EBF20FA07FC95
:1004200046EA0C062037B6FBF4FCA7EB0507103FA5
:1004300007F01F0BCBF120060CFA0BFB2CFA06F68B
:1004400044BFB3460026202FA4BF5E464FF0000BEA
:100450005BEA060C08BF4FF0010B19EB0B09ABFB75
:10046000027C48EB0608C01B06FB02CC0BFB03CC4E
:1004700071EB0C01C1E70B46024641464846BDE818
:10048000F08B13B54FF000004FF00001AFF3008088
:10049000BDE81C40704700000FB41CB5074B06AA0E
:1004A0007B4469460090059800F0F7FA0020694601
:1004B00000F006FB1CBC5DF814FB00001D060000EC
:1004C0002DE9F0410E460446002020622046E168F6
:1004D000884730B3252805D0D4E901219047206A08
:1004E000401CF2E7E168204600278847050018D045
:1004F000A5F14100192802D820354FF40067324693
:10050000294620462760FFF7ABFE40B1012804D002
:10051000F61D26F007060836D8E7361DD6E728462A
:10052000DAE7206ABDE8F0812DE9F04106460024B3
:1005300010687529314616A510D0AFF30080002849
:1005400002DA404213A507E031688A0701D512A5F7
:1005500002E0490704D511A5012401E0AFF30080B2
:1005600000210A2206F1240709E0B0FBF2FCB0FBEF
:10057000F2F302FB1C00303078541846491C002866
:10058000F3D123462A463046BDE8F04100F026BAB2
:10059000000000002D0000002B00000020000000E3
:1005A0000FB400B58DB010A9099000910B904FF0D9
:1005B000FF300A9000200C900648784406900648C8
:1005C00078446A4607900F9909A800F093FA0DB095
:1005D0005DF814FB570500006F0500002DE9FF5F73
:1005E0001D464FF0FF3B91464FF000085F46D5E9AE
:1005F0000146A96901987F1C8847296A8246884775
:100600000028F6D1BAF1FF3F0CD0002E24F4C064CC
:1006100019DD600614D5BAF12B0F09D0BAF12D0FF0
:100620000ED103E0584604B0BDE8F09F44F4806466
:10063000A96901987F1C8847761E8246002E02DD3C
:10064000BAF1300F03D0B9F1000F26D032E0A9691A
:10065000761E01987F1C44F400748847002E824661
:1006600005DDBAF1780F06D0BAF1580F03D0B9F111
:10067000000F10D01EE0B9F1000F02D0B9F1100F39
:1006800018D1A969761E01987F1C24F4007488474C
:100690008246102002E0082000E00A20814609E09E
:1006A000A96908FB0908761E01987F1C44F40074B0
:1006B00088478246002E05DD4946504600F005FA7F
:1006C0000028EDDAE96901988847A00502D46FF0A7
:1006D0000100A8E7E00725D1600613D5600502D523
:1006E000C8F1000000E0404629680A1D2A60096838
:1006F000220501D5087015E0220701D5088011E018
:1007000008600FE02868011D29600068210502D5F6
:1007100080F8008006E0210702D5A0F8008001E003
:10072000C0F8008038467EE72DE9FF5F4FF00008F3
:100730009946144646469169D2E901A7DDF838B0DA
:1007400001988847054659EA0B0005D009E0A169E0
:100750000198761C88470546216A28468847002864
:10076000F5D1681C03D05FEACA7005D015E04FF0E0
:10077000FF3004B0BDE8F09F2068011D2160D0F873
:1007800000800AE05FEACA7001D108F8015BA16944
:10079000761C01987F1E88470546002F1ADD681CCD
:1007A00018D0B9F1000F0DD0E81705EBD060421159
:1007B00020F01F0059F822102A1A0120904001420F
:1007C000E0D107E0BBF1000FDCD12846216A884761
:1007D0000028D7D0E16901988847BBF1000F07D105
:1007E000002E05DD5FEACA7002D1002188F80010F2
:1007F000A068B84203DDBBF1000F03D017B16FF062
:100800000100B6E73046B4E710B5431C02E010F82B
:10081000011B71B18107FAD14FF0013202C88C1A65
:100820008C4314EAC211F9D0C01A0A0603D0C01EC4
:1008300010BDC01A10BD0A0401D0801E10BD0902EF
:10084000FCD0401E10BD032A40F2308010F0030C93
:1008500000F0158011F8013BBCF1020F624498BF13
:1008600011F801CB00F8013B38BF11F8013BA2F1B0
:10087000040298BF00F801CB38BF00F8013B11F02B
:10088000030300F02580083AC0F0088051F8043BCB
:10089000083A51F804CBA0E80810F5E7121D5CBF38
:1008A00051F8043B40F8043BAFF30080D20724BF6B
:1008B00011F8013B11F801CB48BF11F8012B24BFFF
:1008C00000F8013B00F801CB48BF00F8012B70474E
:1008D00010B5203AC0F00B80B1E81850203AA0E8DB
:1008E0001850B1E81850A0E81850BFF4F5AF5FEA0F
:1008F000027C24BFB1E81850A0E8185044BF18C9C2
:1009000018C0BDE810405FEA827C24BF51F8043B68
:1009100040F8043B08BF7047D20728BF31F8023BBC
:1009200048BF11F8012B28BF20F8023B48BF00F850
:10093000012B704702F0FF0343EA032242EA02421E
:1009400000F002B84FF000020429C0F0128010F04D
:10095000030C00F01B80CCF1040CBCF1020F18BF9B
:1009600000F8012BA8BF20F8022BA1EB0C0100F02E
:100970000DB85FEAC17C24BF00F8012B00F8012B01
:1009800048BF00F8012B70474FF0000200B5134636
:1009900094469646203922BFA0E80C50A0E80C509F
:1009A000B1F12001BFF4F7AF090728BFA0E80C5050
:1009B00048BF0CC05DF804EB890028BF40F8042B49
:1009C00008BF704748BF20F8022B11F0804F18BFB6
:1009D00000F8012B70477047704770472DE9F047CA
:1009E0000D4699469246044600F12408016888069F
:1009F00004D5E06921F01001216000E00120A84247
:100A000001DD471B00E00027A1697A1902EB09000C
:100A1000081AA0612078C00602D42046AFF30080F7
:100A2000002608E0D4E901211AF806009047206A60
:100A3000401C761C20624E45F4DB2078C0060AD5A7
:100A40002046AFF3008006E0D4E901213020904732
:100A5000206A401C2062381EA7F10107F4DC07E081
:100A6000D4E9012118F805009047206A401C206253
:100A7000281EA5F10105F3DC2046AFF300802078A5
:100A8000000602D50220BDE8F0870120FBE7000048
:100A900001694A1C02610878704700B58FB0CDE942
:100AA00001310021059105497944CDE90310114632
:100AB0006846FFF705FD0FB000BD0000E5FFFFFF32
:100AC0000A6802F8010B0A6070473A2800D23038F1
:100AD00020F02002412A01D3A2F13700884201D33D
:100AE0004FF0FF3070470000026811441378016036
:100AF00018467047D16005497944516104497944E9
:100B0000116200211161114600F02EB8EDFFFFFFC8
:100B100053000000426842B1016811F8013B23B163
:100B2000521EC0E90012184670470121C160881E9C
:100B3000704742685AB1C368016843B983688B4201
:100B400005D0491E521CC0E90012002070474FF02A
:100B5000FF30704710B5044600F0EAF90068005D08
:100B600000F0010010BD00002DE9F34F4FF0000A26
:100B70000C4656468DB001200C9001F10C000B90F4
:100B800062690B9801219047051E2DD0252D2CD090
:100B9000216A8847C0B162690B9801219047216A98
:100BA00088470028F7D16269411E0B98904700E002
:100BB000761CA1690D988847216A88470028F7D1DB
:100BC000E1690D988847DBE7A1690D988847A8423D
:100BD000074601D1761CD3E7E1690D9888477F1C51
:100BE00002D1BAF1000F6FD06CE162690B98002757
:100BF0003D46394690472A2804D162690B98012165
:100C000090470125DFF8D08262690B980121904757
:100C1000A0F130010A290AD24745E5DC07EB87013C
:100C200000EB4107303FDFD445F01005ECE7E90663
:100C300001D46FF000476C280AD04C2814D06828E3
:100C400015D06A280DD074281CD07A281AD01DE03F
:100C500062690B98012190476C2802D045F0040589
:100C600014E045F002050DE045F020050AE0626958
:100C70000B9801219047682802D045F0080505E04F
:100C800045F4006562690B9801219047C4E901575A
:100C900065283DD019DC58287AD00CDC452837D09F
:100CA00004DC252826D041289ED131E046282FD0CB
:100CB000472899D12CE05B2877D0612828D0632879
:100CC0007CD0642823D15AE0F7E06F2848D008DCB4
:100CD00066281DD067281BD0692821D06E2816D120
:100CE00027E0702845D0732868D0752847D0782829
:100CF0000DD14DE0A1690D988847252805463FF4A0
:100D000069AFE1690D9888476D1C3FF46AAFD9E07F
:100D10000D9923466A466FF00100AFF30080C6E0EC
:100D200045F0400023464FF000026060A80736D42B
:100D30003EE0E8077FF447AF2068011D21600068AE
:100D4000290501D506701BE7290701D5068017E79D
:100D5000A90703D5F117C0E9006111E706600FE7A5
:100D600045F0400023464FF008026060A80716D403
:100D70001EE040F60E0125EA0100606016E045F035
:100D8000400023464FF00A026060A80707D40FE036
:100D900045F040006060A80708D5234610220D9951
:100DA0006FF00100AFF3008081E007E010222346DE
:100DB0000D996FF00100FFF711FC78E04FF000098A
:100DC00063284F46C8464B46CB4602D05B2807D027
:100DD00039E02079C00601D40120A060012732E06B
:100DE0006269D4F80CB00B98012190475E2807D1B6
:100DF0004FF0010949466269D4F80CB00B9890474E
:100E0000216939B900210A4603AB43F82120491C66
:100E10000829FADBD8B3216949B308F101086269EE
:100E20000B98012190475D28F4D1B9F1000F09D04A
:100E3000002003A951F82020D24341F82020401C73
:100E40000828F7DB03AB2069002820794FEA4070BF
:100E50001ED05B462246CDF80080CDE901970D9962
:100E600000286FF0010020DAAFF300801FE0C11707
:100E700003AA00EBD1614B1121F01F0102EB8302A9
:100E8000411A13680120884003431360C7E719E043
:100E90000D99224600286FF00100009702DAAFF3A7
:100EA000008004E0FFF740FC01E0AFF30080002881
:100EB0000ADA401C06D10C9820B14FF0FF300FB079
:100EC000BDE8F08F5046FAE7E90701D10AF1010ABF
:100ED000064400200C9053E6CCCCCC0C0048704764
:100EE0004C6900207546FFF7F9FFAE4605006946DC
:100EF000534620F00700854618B020B5FFF742FAA8
:100F0000BDE820404FF000064FF000074FF000080A
:100F10004FF0000B21F00701AC46ACE8C009ACE88B
:100F2000C009ACE8C009ACE8C0098D4670470000B4
:100F300010B500F00FF8001D10BD00BF4574000093
:100F400010B50446AFF300802046BDE81040FFF71F
:100F5000A4B90000004870476C69002001491820BE
:100F6000ABBEFEE7260002004FF0013C50F8042B18
:100F700051F8043B9A4221D1A2EB0C03934313EAAC
:100F8000CC1317D150F8042B51F8043B9A4215D1D9
:100F9000A2EB0C03934313EACC130BD150F8042BB0
:100FA00051F8043B9A4209D1A2EB0C03934313EA94
:100FB000CC13DBD04FF00000704700BFD01A01BA4D
:100FC000B1FA81F101F0180122FA01F0CB40C1F130
:100FD0002001DBB2C0B2C01A2CFA01F3D11A91433E
:100FE00011EAC311E6D170477047FEE70020704751
:100FF0000020704710B500220449054803F01AFE8E
:101000000449034803F009FE002010BD485A00209F
:101010006C4D00204852002070B50C460546014634
:101020000C4803F0FAFD0B4803F0D0FD14210A48E8
:10103000FFF788FC2478294622460748FFF703FC7F
:1010400021462846FFF77EFC044901200870002055
:1010500070BD00006C4D0020BC0300200600002085
:1010600000207047094A10B5D2F8BC22D2F81422E9
:101070000AB1012010BD0A460146044803F0DAFD1A
:10108000BDE81040014803F04FBE00006C4D002049
:10109000014800F07DB90000D0030020016818234A
:1010A000CAB2103AB2FBF3F2054B6FF30901032AFF
:1010B0009B5CC36500D9091D816508467047000027
:1010C000188B000810B5014600208B698A6A4FF022
:1010D000C07453B1B3F5005F15D072B1012A0CD0C2
:1010E000022A0AD0032A09D104E01AB1012A06D043
:1010F000022A03D1C96AC90100D5012010BDC96AFD
:10110000A142FAD010BD002AF7D0012AF2D0022A5B
:10111000F3D0032AF3D010BD7047012000F052BB7A
:10112000022000F04FBB042000F04CBB082000F070
:1011300049BB102000F046BB202000F043BB72B634
:10114000FEE70000002229B101291DD002291ED08E
:101150004FF440720B2800D9001D0E490B6823F490
:1011600040730B600B6813430B600A6822F0F802AF
:101170000A600A68022303EBC00002430A600868A1
:1011800040F48030086070474FF48072E2E74FF41B
:101190000072DFE7103C02401348016889050FD553
:1011A000016821F400710160016841F4006101608F
:1011B000016821F400610160016841F4007101607F
:1011C000016849050FD5016821F48061016001685B
:1011D00041F480510160016821F48051016001688F
:1011E00041F4806101607047003C02400E4A136880
:1011F00023F44073136003290DD0012911680FD027
:1012000041F40041116011684FF4803343EA00203B
:10121000014311607047116848F204031943F1E774
:1012200041F00401EEE70000103C0240064A13685A
:1012300023F44073136013681360136843F00103D1
:101240001360017070470000103C0240094910B55E
:101250000C6824F440740C600C6844F440740C6016
:101260000C6844F001040C600260BFF36F8F4360B0
:1012700010BD0000103C0240074A136823F440737D
:101280001360136843F480731360136843F0010321
:101290001360018070470000103C0240074A136849
:1012A00023F440731360136843F4007313601368EE
:1012B00043F001031360016070470000103C0240DE
:1012C0001C490868C2061C4805D5C26942F01002D4
:1012D000C26110220A600A68920605D5C26942F00E
:1012E0000802C26120220A600A68520605D5C26956
:1012F00042F00402C26140220A600A68120605D563
:10130000C26942F00202C26180220A600A68D20504
:1013100006D5C26942F00102C2614FF480720A60D0
:101320000A68920705D5C26942F02002C261022014
:10133000086070470C3C02407804002070B51149E9
:1013400004460020C86100F075FB06460E4D09E01A
:10135000601C07D024B100F06DFB801BA04201D9B6
:10136000032070BD2868C003F2D42868C00701D0EC
:1013700001202860286810F4F970F2D0FFF7A0FF70
:10138000012070BD780400200C3C0240406E704784
:101390002DE9F84304464FF00009CDF8009063486A
:1013A0004FF41651A56D0068B0FBF1F72E6894F864
:1013B0005C10082000FA01F131420FD021680A6860
:1013C00052070BD50A6822F004020A6094F85C10F8
:1013D0008840A860606D40F00100606594F85C1082
:1013E0004FF0010808FA01F0304208D0216849693D
:1013F000090604D5A860606D40F00200606594F8AD
:101400005C1004208840304208D0216809688907B0
:1014100004D5A860606D40F00400606594F85C102D
:1014200010208840304218D021680968090714D577
:10143000A86020680168490304D50068000308D546
:10144000A16C07E00168C90503D4016821F0080117
:101450000160216C09B12046884794F85C10202077
:101460008840304231D021680968C9062DD5A8606E
:1014700094F8350005282068016806D0490347D54F
:10148000006800031DD4616C1CE021F016010160AE
:101490002068416921F080014161206C08B9A06C8D
:1014A00020B12068016821F00801016094F85C1007
:1014B0003F208840A86084F8358084F83490216DFE
:1014C0001FE0E16B09B120468847606D00282BD0F2
:1014D000606DC00714D0052084F8350020680168CD
:1014E00021F0010101600098401C0090B84203D82F
:1014F00020680068C007F6D184F8358084F83490FD
:10150000E16C002910D001B02046BDE8F043084747
:101510000168C905D5D4016821F01001016084F883
:10152000358084F83490CCE7BDE8F8839C00002037
:101530002DE9F041044600F07DFA06465CB1022038
:1015400084F83500002584F834502068016821F0C3
:10155000010101600DE00120BDE8F08100F06AFAB0
:10156000801B052805D920206065032084F83500FC
:10157000F2E720680068C007F0D1226811682048AF
:101580000140D4E901031843D4E903363343184337
:1015900063691843A3691843E3691843236A18432E
:1015A0000843616A042903D1D4E90B1319430843A2
:1015B000106020684069666A20F0070130460E43DB
:1015C000012704280CD1A06A0643E06A40B12046F6
:1015D000FFF778FD20B14020606584F83570BAE7E8
:1015E000206846612046FFF759FD94F85C203F21B2
:1015F00091408160656584F835700020ACE700009B
:101600003F8010F070B5044600F014FA0546601CE7
:1016100002D004480078044400F00CFA401BA042B9
:10162000FAD370BD900000202DE9F047044623480E
:101630000F46017E01290AD00121804601764CF235
:1016400050394846FFF77AFE020003D030E002200E
:10165000BDE8F0874FF0FF3038602068184D012852
:1016600001D0A6681DE0207C6168FFF7BFFD4846F9
:10167000FFF764FE0246286848F2040188432860A8
:1016800014E0217C3046FFF75DFD4846FFF756FE2B
:101690000200286820F0FA00286001D03E6005E0D2
:1016A000761CD4E902100844B042EAD8FFF774FD72
:1016B000002188F818101046CAE7000078040020BE
:1016C000103C02400348016841F0004101600020E5
:1016D00070470000103C02402DE9F0471B4E0546C4
:1016E0001446307E1F468946012808D001203076F6
:1016F0004CF250384046FFF721FE18B114E00220AA
:10170000BDE8F0879DB1012D16D0022D19D02246DB
:101710003B464846FFF79AFD4046FFF70FFE0C494F
:101720000A6822F001020A6000213176E8E7E1B29E
:101730004846FFF77BFDEFE7A1B24846FFF79CFD67
:10174000EAE721464846FFF7A9FDE5E778040020CF
:10175000103C0240074900200A68002A09DA054ABD
:10176000054B0C3A1360054B13600968002900DA39
:1017700001207047103C024023016745AB89EFCD43
:1017800010B50D4CE16B491CE163022813D1002117
:101790000A4805F09FFC4FF40051094800F03DF95C
:1017A0006079012807D10548D83801F01DFD0348AC
:1017B000FFF7ECFD206410BD000000204403002072
:1017C00000180240044910B50A68024202D00860BD
:1017D000FFF7D6FF10BD0000143C01402DE9F84F83
:1017E000DFF8F8A10022012403254FF00F090AF1C8
:1017F000040BAAF1040E00BF0B6804FA02F6334092
:10180000B34270D10F7907F00307012F01D0022FE7
:1018100016D187684FEA420805FA08FC27EA0C0748
:10182000D1F80CC00CFA08FC4CEA070CC0F808C050
:101830004768B7430E79C6F3001696403E434660AC
:101840000E79F643B6070AD0C7684FEA420C05FA8C
:101850000CF6B7438E6806FA0CF63E43C6600E7966
:1018600006F00306022E10D1D60800EB8608D8F841
:10187000206057074FEAD76C09FA0CF7BE430F698F
:1018800007FA0CF73743C8F8207006684FEA420C95
:1018900005FA0CF7BE430F7907F0030707FA0CF7B8
:1018A000374307604E6816F4403F1CD04C4E3768F3
:1018B00047F480473760366822F0030706F4804615
:1018C0000096484E07EB060CDCF8086897073F0FB8
:1018D00009FA07F826EA0806DFF80C81404503D12B
:1018E0004FF0000841E072E0DFF80081404502D18E
:1018F0004FF0010839E0DFF8F880404502D14FF0A1
:10190000020832E0DFF8EC80404502D14FF00308D6
:101910002BE0DFF8E480404502D14FF0040824E0DA
:10192000DFF8D880404502D14FF005081DE0DFF810
:10193000D080404502D14FF0060816E0DFF8C480A1
:10194000404502D14FF007080FE0DFF8BC8040456A
:1019500002D14FF0080808E0DFF8B080404502D11E
:101960004FF0090801E04FF00A0808FA07F848EAC2
:101970000608CCF80888DAF800605746D1F804C0A9
:101980009E435FEACC2C00D51E433E60DBF800602E
:101990005F46D1F804C09E435FEA8C2C00D51E43FD
:1019A0003E60DEF800607746D1F804C09E435FEAEF
:1019B0008C3C00D51E433E60084F083F3E68D1F87E
:1019C00004C09E435FEACC3C00D51E433E60521CDF
:1019D000102AFFF411AFBDE8F88F0000083C014069
:1019E0004438024000300140000002400004024040
:1019F00000080240000C02400010024000140240A7
:101A000000180240001C0240002002400024024056
:101A10000069084000D001207047426921EA0203B2
:101A20000A4043EA0241816170470AB1816170470F
:101A30000904FBE70148806870470000900000201F
:101A4000024881680278114481607047900000204C
:101A50000B4810B5016841F400710160016841F460
:101A600080610160016841F480710160032000F031
:101A70009FF80F2000F006F800F050F8002010BD8D
:101A8000003C024030B50546204887B0002401687C
:101A900041F001010160006806A900F0010000901A
:101AA00001A800F047FE0498B0B100F069FE4000C4
:101AB00017494FF08042B0FBF1F11648491E026011
:101AC00040F2E732C0E90324C0E90114846101F067
:101AD00019FB040003D015E000F052FEE8E70D48C2
:101AE00001F082FB04000DD11C2000F033F8102D12
:101AF00007D2002229461C2000F03AF8064805606B
:101B000000E0012407B0204630BD0000403802400C
:101B100040420F0030040020940000200C4882B0A6
:101B2000016841F480410160006800F48040009049
:101B30000748001F016841F08051016000680022E1
:101B400000F0805000900F21901E02B000F010B8FD
:101B500044380240002809DB00F01F0201219140B7
:101B60004009800000F1E020C0F80011704700003B
:101B7000F0B40E4B1B680C46C3F30223C3F10705F8
:101B8000042D00D90425191D072901D2002300E0E6
:101B9000DB1E012606FA05F1491E214099409E40B0
:101BA000761E16403143F0BC04F060BC0CED00E042
:101BB000064900F0070208684FF6FF03184040EAA4
:101BC0000220034A10430860704700000CED00E05B
:101BD0000000FA0570470068416200207047F0B5C8
:101BE0000368586A39B19C6A4FF4827600EB14445A
:101BF00000204D1E0AE040EA024098620FE006EB2A
:101C00008007DF59401C04EB1744C0B2A842F6D34A
:101C100044EA02404FF4807202EB810158500020E8
:101C2000F0BDD0F8E00403F012BB01EBC10200EB01
:101C30008202D0F8E004126A03F067BA01EBC10235
:101C400000EB8202D0F8E004D2F8602203F0B8BAC8
:101C5000D0F8E00403F0FDBA0A0601F00F0101EB31
:101C6000C10100EB810101D5143101E001F51571CD
:101C7000006804F0DDB970B504460B0601F00F00F2
:101C800000EBC00104EB81014FF001024FF00005B1
:101C900002D54A75143103E081F8555201F51571EA
:101CA000087094F89404012808D084F894242068DB
:101CB00003F0D8FE84F89454002070BD022070BD5B
:101CC00070B5044601F00F002279904201D901203D
:101CD00070BD0B0601F00F0101EBC10104EB8101A6
:101CE0004FF001024FF0000502D54A75143103E0B0
:101CF00081F8555201F515718D70087094F89404AF
:101D0000012808D084F89424206804F01DF884F891
:101D10009454002070BD022070BD01F00F0101EB52
:101D2000C10100EB8100D0F8680270472DE9F04155
:101D300004460F0601F00F0000EBC00104EB810127
:101D40004FF001064FF0000502D54E75143103E047
:101D500081F8555201F51571C2F30A0208708A60C4
:101D60000B714A7802B14883022B00D14D7194F86F
:101D70009404012809D084F89464206803F0C4FD19
:101D8000284684F89454BDE8F0810220FBE710B5A2
:101D900001F00F0404EBC40100EB8101C1E99823B9
:101DA0000023C1F8683281F8553281F854428379B2
:101DB00001F51571012B00D1CA618279006804F028
:101DC0001BF8002010BD70B504460D4601F00F0051
:101DD0002179884201D9012070BD29064FF0000603
:101DE0004FF0010206D500EBC00104EB81014A75FA
:101DF000143107E005EBC50104EB810181F8556260
:101E000001F515718A70087094F89404012807D0C0
:101E100084F89424206803F0C3FF280702D007E069
:101E2000022070BDA17904F29C42206803F060FF9B
:101E300084F89464002070BD10B501F00F0404EB29
:101E4000C40100EB8101C1E9082300238B62012357
:101E50004B7501F8144F8379012B00D1CA61827947
:101E6000006803F0C9FF002010BD00002DE9FC5FF1
:101E700005680446284604F077F900287DD12068DB
:101E800004F09EF9002878D0D5F80808C0F30D209A
:101E9000C4F8D404206804F093F9800704D52068BE
:101EA000416901F002014161206804F089F9C1062D
:101EB00004F29C40009034D52068816921F0100123
:101EC00081612F6A07F00F0000EBC00004EB800671
:101ED000C7F3434006F51576022802D0062811D034
:101EE0001AE047F6F070074216D0C7F30A121746F9
:101EF0002846F16804F068F9F0683844F0607069C9
:101F0000384408E008222846009904F05DF9706919
:101F1000C7F30A11084470612068816941F010011B
:101F20008161206804F04CF900034FF0080B4FF07A
:101F3000000A4FF001097CD50026206804F01FF943
:101F4000074674E0F80770D0F1B2206804F030F969
:101F50008046C00707D005EB4611C1F8089B314603
:101F6000204601F0E9FE5FEA087024D505EB461132
:101F7000C1F808BB2068016C00E023E200EB4610CA
:101F80000191D0F8082BFB4B994205D9110403D5D8
:101F90004FF40041C0F8081B204600F0F0FAF54964
:101FA0000198884207D9A079012804D1206801212D
:101FB000009A03F09DFE5FEAC86004D505EB461168
:101FC0001020C1F8080B5FEA88701DD5686900060B
:101FD00005D5D5F8040840F48061C5F8041806EB6F
:101FE000C60004EB800090F8571200F51570012927
:101FF00005D180F803A0F1B2204600F0E9F905EB25
:1020000046110220C1F8080B5FEA886004D505EB91
:1020100046102021C0F8081B5FEA884005D505EB73
:1020200046104FF40051C0F8081B7F08761C002FA3
:1020300088D1206804F0C4F840036ED5206804F00D
:1020400097F80746002666E0F80762D0F1B22068EC
:1020500004F09CF88046C00723D006F00F01D5F8A5
:10206000342809FA01F18A43C5F8342805EB4611F2
:10207000C1F80899A07901280FD106EBC60004EB3E
:102080008000D0E907211144016236B9606A20B9A5
:1020900020680121009A03F02BFEF1B22046FFF7E1
:1020A000C4FD5FEA087003D505EB4611C1F808B915
:1020B0005FEAC86004D505EB46111020C1F8080995
:1020C0005FEA486004D505EB46104021C0F80819C6
:1020D0005FEA887016D53146284604F01AF806EBF8
:1020E000C60004EB8000C17D1430012905D180F8C1
:1020F00003A0F1B2204600F067F905EB461102207B
:10210000C1F808095FEA086003D53146204601F0AE
:1021100079FE7F08761C002F96D1206804F050F8D5
:10212000002811DAD5F8040820F00101C5F80418D8
:1021300094F8CC0401282BD0204600F005FA206842
:10214000416901F000414161206804F039F800055F
:102150000BD5D5F80808C00702D0204600F038FAA1
:102160002068416901F400614161206804F028F8A9
:10217000C00467D5D5F8040820F00100C5F80408AC
:102180001021206803F0C5FF00214FF67F3220E0C8
:1021900084F8CCA400212046FFF71CFDCFE700BF48
:1021A00005EB4110C0F80829D0F8003923F40013DA
:1021B000C0F80039C0F8082BD0F8003B23F4001316
:1021C000C0F8003BD0F8003B43F00063C0F8003B90
:1021D000491C20798842E3D8D5F81C0840F0011149
:1021E000C5F81C18E07B002828460DD0D0F88408DC
:1021F00040F00B01C5F88418D5F8440840F00B01F5
:102200002846C5F844180DE0D0F8140842F22B0116
:102210000843C5F81408D5F8100840F00B0128460B
:10222000C5F81018D0F8000820F4FE61C5F80018B1
:10223000A1792068009A03F05BFD2068416901F4F0
:1022400080514161206803F0BBFF800415D52068F0
:1022500003F09AFB206803F07AFFE07100F08AFA3D
:102260000146E279206804F00DF8204600F056F9A6
:102270002068416901F400514161206803F0A0FF2A
:10228000000707D5204600F063F92068416901F096
:1022900008014161206803F093FF000616D5A86984
:1022A00020F08001A96101260DE000BF06EBC60009
:1022B00004EB800090F85702012803D1F1B22046C8
:1022C000FFF7CAFC761C2079B042EFD8206803F0F3
:1022D00077FFC0021FD501264F4614E005EB4610DC
:1022E000D0F8001906EBC60004EB8002107E01282E
:1022F00008D1002906DAF0B240F08001D7752046F7
:10230000FFF7AAFC761C2079B042E7D82068416923
:1023100001F480114161206803F052FF800234D53E
:1023200001204A4629E000BF05EB4011D1F8001B0F
:1023300000EBC00304EB830393F85862012E1BD11A
:10234000002919DA94F8D46401F4803106F001060A
:10235000B14211D183F85722A96941F08003AB61E2
:102360006969090608D4D5F8040840F40070C5F876
:10237000040805E00A30544F401C21798142D3D82B
:102380002068416901F400114161206803F018FFE1
:10239000400007D52046FFF744FC2068416901F062
:1023A00080414161206803F00BFF40070AD5206897
:1023B0004568680702D52046FFF74AFC2068416857
:1023C00029434160BDE8FC9FD0F8E00402F097BFCC
:1023D000D0F8E00402F0A7BFF8B5040005D094F8E7
:1023E00095042668002510B106E00120F8BD84F8A8
:1023F0009454204600F056F8032084F89504B6F172
:10240000A04F00D1A571206803F06CFC207C8DF8F2
:10241000000094E80F0003F0C5FA0226B8BB0021C3
:10242000206803F0F0FE90BB002001270DE000BF04
:1024300000EBC00104EB81014F750875C8850D766E
:10244000CD610D62401CC0B24D6221798142EFD84E
:10245000002011E000EBC00104EB810181F855522E
:1024600081F8540281F85852C1F85C52C1F86052A8
:10247000401CC0B2C1F8645221798142EAD8207C64
:102480008DF8000094E80F0003F06EFB10B184F8A3
:102490009564AAE7657484F89574206803F056FB88
:1024A0000020F8BD10B586B0044614216846FEF73A
:1024B0006BFA17492068884227D1164C0020216802
:1024C00041F002012160216801F0020105914FF401
:1024D000404100910221CDE90110032003900C201E
:1024E000049069460C48FFF779F9206840F00050E5
:1024F00020602068002200F00050059005214D204A
:10250000FFF736FB4D20FFF725FB06B010BD00009E
:1025100000000440303802400004024070B5044618
:10252000C079012570B1022801D0FEF708FE2946C6
:10253000D4F8E00402F065FFD4F8E004BDE8704090
:1025400002F01ABF0025F2E7D0F8E00402F042BF23
:10255000D0F8E00402F048BF10B5044690F89404A7
:1025600001280AD0012084F894046174206803F0E3
:1025700078FE002084F8940410BD022010BDD0F82D
:10258000E02400F29C41104602F047BF10B504461B
:10259000006894F89414012909D0012184F8941456
:1025A000C168490609D5617B012902D005E00220F6
:1025B00010BD816B41F480318163206803F087FD99
:1025C000206803F0B5FA002084F8940410BD0000E0
:1025D00010B50446D0F8E00402F061FF2068D0F89E
:1025E000001E41F00101C0F8001EE07A002804D06E
:1025F0000248016841F00601016010BD10ED00E0E5
:102600002DE9F0470E46050065D0DFF81481D8F8B3
:102610000000F7B200F00F00B04207D288F8007057
:10262000D8F8000000F00F00B04254D128683D4CAB
:10263000810712D5400703D5206840F4E0502060A0
:102640002878000703D5206840F4604020602068A7
:10265000A96820F0F000084320602878C0072DD03A
:10266000304968680839012812D0022813D003289D
:1026700011D00968890700292DDA216821F00301AA
:1026800001432160FFF7D6F9814641F2883A0EE016
:1026900009688903EFE709688901ECE7FFF7CAF9E0
:1026A000A0EB0901514502D90320BDE8F08720685D
:1026B000696800F00C00B0EB810FEFD1D8F8001082
:1026C000404601F00F01B14207D90770006800F0E1
:1026D0000F00B04201D00120E7E72878400705D578
:1026E0002068E96820F4E05008432060287800075B
:1026F00006D52068296920F4604040EAC1002060C6
:1027000000F05EF82168084AC1F30311515CC8402B
:102710000649086006480068FFF7B4F90020C4E7DE
:10272000003C024008380240208B00089C0000203A
:10273000940000200F2202600C4A136803F0030388
:102740004360136803F0F0038360136803F4E053FD
:10275000C36012684FF4E05303EAD20202610448F6
:10276000006800F00F000860704700000838024061
:10277000003C024001480068704700009C000020B7
:102780000448054900680968044AC1F38221515C84
:10279000C84070479C00002008380240308B000879
:1027A0000448054900680968044AC1F34231515C94
:1027B000C84070479C00002008380240308B000859
:1027C000154810B5006810F00C02144813D04110E1
:1027D000042A0FD0082A0ED10F4C241F2268236828
:1027E00002F03F025B0207D52068C0F38810A0FB0F
:1027F000010106E0084610BD2168C1F38811A1FB64
:1028000000010023FDF7D0FD2168C1F30141491CFF
:102810004900B0FBF1F010BD083802400024F4007C
:102820002DE9F84F04006ED02078DFF84C93C007F4
:10283000A9F104054AD009F104000168C1F381013E
:10284000012908D00068C0F3810002280AD1D9F814
:102850000000400206D52868800337D5606800284C
:10286000E1D033E06068B0F5803F10D0B0F5A02F24
:10287000286810D020F480302860286820F4802058
:1028800028606068A8B1FFF7D5F806460DE0286813
:1028900040F48030F4E740F480202860F7E700BF80
:1028A000FFF7C8F8801B642873D828688003F7D521
:1028B0000CE0FFF7BFF8064605E000BFFFF7BAF8E7
:1028C000801B6428F0D828688003F7D42078DFF8CC
:1028D000AC8280074FF0000A3ED5A748001D016872
:1028E00011F00C0F08D00068C0F3810002280BD152
:1028F000D9F80000400207D42868800716D5E068A0
:10290000012800D112E033E1E068B8B10120C8F835
:102910000000FFF78FF8064605E000BFFFF78AF8D2
:10292000801B0228C0D828688007F7D5286821694D
:1029300020F0F80040EAC10028600DE0C8F800A0CF
:10294000FFF778F8064604E0FFF774F8801B0228CA
:102950001FD828688007F7D42078000722D5864F33
:1029600087486169703771B101210160FFF762F832
:10297000064604E0FFF75EF8801B022809D8386895
:102980008007F7D50EE0C0F800A0FFF753F8064621
:1029900005E082E0FFF74EF8801B02287DD83868FA
:1029A0008007F7D42078400768D5DFF8CCB100273E
:1029B0000BF13C0BDBF80000C0000BD4DBF800107F
:1029C00041F08051CBF80010DBF80000012700F047
:1029D000805000906B4E3068C00510D4306840F4D1
:1029E00080703060FFF726F8009005E0FFF722F8CE
:1029F0000099401A022850D83068C005F6D55E4EBE
:102A0000A0686C3601280FD00528306810D020F05F
:102A100001003060306820F004003060A068B8B178
:102A2000FFF708F800900FE0306840F00100F4E78D
:102A300040F004003060F7E7FEF7FCFF0099411A10
:102A400041F28830814266D830688007F4D50EE0C4
:102A5000FEF7F0FF009007E0FEF7ECFF0099411A47
:102A600041F28830814256D830688007F4D42FB1C3
:102A7000DBF8001021F08051CBF80010A069C8B33A
:102A80003D49091D0968C1F3810102294AD0022884
:102A9000504607D0C8F8600000E03CE0FEF7CAFFEF
:102AA00004463BE04746C8F86000FEF7C3FF064611
:102AB00005E000BFFEF7BEFF801B02282BD8286868
:102AC0008001F7D4D4E907010843A16A2E4A4908D6
:102AD00002EB0141626A41EA8211084394F82C102A
:102AE00040EA0161C9F8001001203866FEF7A2FF34
:102AF000044606E03EE000BFFEF79CFF001B0228F4
:102B000009D828688001F7D534E000BFFEF792FFAE
:102B1000001B022802D90320BDE8F88F2868800135
:102B2000F4D427E00128F7D0D9F80000E26900F4D6
:102B3000800191421CD1226A00F03F01914217D1DD
:102B400047F6C071626A0140B1EB821F10D1A26AE0
:102B50004FF0FF3300F4403103EB5202B1EB024F70
:102B600006D194F82C1000F07060B0EB016F01D02A
:102B70000120D1E70020CFE704380240000047429F
:102B8000800E4742007000400000FFFF70B5040057
:102B900009D0606A002540B125616561A56294F89D
:102BA000510040B10CE0012070BD6068B0F5827F3B
:102BB000F4D0E561F2E784F85050204600F044F884
:102BC000022084F851002068016821F04001016072
:102BD000A088218900F4827001F404410843A1898E
:102BE00001F400610843217C01F002010843217DCA
:102BF00001F001010843218B01F400710843217F9A
:102C000001F03801084394F8201001F080010843D6
:102C1000218D01F40051084321680860A069042156
:102C200001EA104094F8241001F0100108432168D3
:102C300048602068C16921F40061C16165650120B7
:102C400084F85100002070BDF0B587B0044614210F
:102C50006846FDF799FE1C492068884232D11B481E
:102C60000024016841F480510160006800F4805044
:102C7000059016481438016841F0010101600168AF
:102C800001F001010591016841F002010160006855
:102C9000022500F002000590C020CDE9000502AA3F
:102CA0000326052782E8D00069460948FEF796FD0D
:102CB0000820CDE9000502AA694682E8D00005484F
:102CC000FEF78CFD07B0F0BD0030014044380240F3
:102CD00000000240000402402DE9F84F044690F83D
:102CE00051001D4616460F46012838D160684FF046
:102CF0000408B0F5827F01D1A06830B3FEF79AFED8
:102D00008246002F75D0002E73D094F85000012811
:102D100025D04FF0010984F8509084F851804FF08D
:102D20000008C4F85480A763A687E687C4F83080FB
:102D3000A4F83480A4F83680C4F84080C4F84480F5
:102D4000A068B0F5004F0CD015E084F851800093D6
:102D500013460A46204600F069F8BDE8F88F0220C5
:102D6000FBE72068016821F04001016020680168EC
:102D700021F48041016020680168490603D401689C
:102D800041F040010160E068C0B134E02068816832
:102D9000C90709D0007BA16B0870A06B401CA06321
:102DA000E08F401EE08709E0FEF744FEA0EB0A003A
:102DB000A84202D3681C01D032E085B3E08F00281E
:102DC000E4D11BE020688168C90709D0C068A16B05
:102DD0000880A06B801CA063E08F401EE0870AE0A3
:102DE000FEF728FEA0EB0A00A84203D3681C02D01D
:102DF00016E012E09DB1E08F0028E3D1524629464B
:102E0000204601F050F808B12020606584F8519008
:102E100084F85080606D00289FD001209DE7FFE777
:102E200084F8519084F85080032096E72DE9FF4FF5
:102E300081B01D46934604464FF001090E9EFEF7F1
:102E4000F9FD074694F851006168012806D0B1F5F4
:102E5000827F3CD1A168C9BB042838D102980028E0
:102E600071D0BBF1000FFBD0002DF9D094F85000C9
:102E700001282CD04FF0010A84F850A094F851009A
:102E8000042802D0052084F851004FF00008C4F84F
:102E90005480C4F838B0E587A58702992163E58698
:102EA000A586C4F84080C4F84480206801684906BB
:102EB00003D4016841F040010160E068B0F5006FA3
:102EC000606808D0F0B3012D49D081E0FFE702200F
:102ED00005B0BDE8F08F08B1012D39D1206B216814
:102EE0000088C860206B801C2063E08E401EE08656
:102EF0002EE02068816889070FD5E18E69B1B9F1AC
:102F0000010F0AD1216B0988C160206B801C2063EE
:102F1000E08E401EE0864FF0000920688168C907F6
:102F20000CD0E18F51B1C068A16B0880A06B801CF0
:102F3000A063E08F401EE0874FF00109FEF77AFDA5
:102F4000C01B01E00BE067E0B04201D3701C50D120
:102F5000E08E0028CDD1E08F0028CAD13EE0206B62
:102F6000216800780873206B401C2063E08E401EAF
:102F7000E0862DE02068816889070FD5E18E69B170
:102F8000B9F1010F0AD1216B09780173206B401C44
:102F90002063E08E401EE0864FF0000920688168C3
:102FA000C9070CD0E18F51B1C068A16B0870A06B4C
:102FB000401CA063E08F401EE0874FF00109FEF740
:102FC00039FDC01BB04202D3701C01D011E086B1A4
:102FD000E08E0028CED1E08F0028CBD13A46314692
:102FE000204600F08FFF50B12020606584F85080AB
:102FF00012E084F851A084F85080032068E7A068AC
:1030000018B92068C1688068009084F851A084F8DD
:103010005080606D0028F1D0012059E7704770475B
:1030200010B590F83C20012A22D0012280F83C20E3
:10303000CA688C6822F4407222434C6822F4806291
:1030400022430C6822F4006222430C6922F480526D
:1030500022434C6922F400522243C969002322F41E
:1030600080420A4301684A6480F83C30002010BD69
:10307000022010BD70B590F83C20012A32D0012406
:1030800080F83C40022280F83D2003685A689D6821
:1030900022F070060A6832435A60134B02689A4263
:1030A00014D0B2F1804F11D0104B9A420ED0104B79
:1030B0009A420BD00F4B9A4208D00F4B9A4205D040
:1030C0000E4B9A4202D00E4B9A4204D1496825F029
:1030D00080031943916080F83D40002180F83C1046
:1030E000084670BD022070BD000001400004004091
:1030F00000080040000C0040000401400040014076
:103100000018004010B5040003D094F83D0010B141
:1031100007E0012010BD002084F83C00204600F0AC
:103120001FF8022084F83D00211D206801F0AAF953
:10313000012084F8460084F83E0084F83F0084F8BB
:10314000400084F8410084F8420084F8430084F889
:10315000440084F8450084F83D00002010BD0000C4
:1031600008B500681D4988422AD11D48016841F010
:10317000010101600068002200F0010000900521BB
:103180001820FEF7F5FC1820FEF7E4FC00220521CC
:103190001920FEF7EDFC1920FEF7DCFC00220521CA
:1031A0001A20FEF7E5FC1A20FEF7D4FC00220521C8
:1031B0001B20FEF7DDFCBDE808401B20FEF7CABC63
:1031C0000849884209D10648001F016841F00801FA
:1031D0000160006800F00800009008BD0000014098
:1031E00044380240000C004090F83D10012901D005
:1031F00001207047022180F83D100168CA6842F042
:103200000102CA6000681149884214D0B0F1804FB1
:1032100011D00F4988420ED00E4988420BD00E497A
:10322000884208D00D49884205D00D49884202D015
:103230000C49884204D1816801F00701062903D0B6
:10324000016841F001010160002070470000014069
:103250000004004000080040000C00400004014051
:1032600000400140001800400168CA6822F00102D5
:10327000CA6001680A6A41F211131A4207D10A6A48
:103280009B101A4203D10A6822F001020A60012150
:1032900080F83D100020704770B5044690F83C005F
:1032A0000025012817D0012684F83C60022084F80C
:1032B0003D002068826822F0770222F47F4282601B
:1032C0000868502838D00DDC20284FD005DC90B39A
:1032D000102811D14AE0022070BD302846D0402885
:1032E0000AD13BE060282FD070280DD0B0F5805F68
:1032F00003D0B0F5005F12D0012584F83D600020B6
:1033000084F83C00284670BDCB68D1E901212068D3
:1033100001F031F92068816841F0770109E0CB685C
:10332000D1E90121206801F026F92068816841F483
:1033300080418160E1E719E0CA684968206801F0CE
:10334000EFF95021206806E0CA684968206801F05A
:10335000F8F96021206801F018F9CEE7CA684968D9
:10336000206801F0DDF940212068F4E72268014679
:103370001046F0E770472DE9F04104460068C66842
:1033800005694FF00007A90713D5B10711D5F91E3C
:10339000016101202077206880698007204602D0E3
:1033A000FFF7E8FF04E000F0A9F8204600F03BF941
:1033B0002777680716D5700714D521686FF00400C9
:1033C0000861022020772068806910F4407F204641
:1033D00002D0FFF7CFFF04E000F090F8204600F0A5
:1033E00022F92777280715D5300713D521686FF004
:1033F00008000861042020772068C0698007204603
:1034000002D0FFF7B7FF04E000F078F8204600F0A4
:103410000AF92777E80616D5F00614D521686FF06B
:1034200010000861082020772068C06910F4407FF0
:10343000204602D0FFF79EFF04E000F05FF8204630
:1034400000F0F1F82777E80708D0F00706D02168E8
:103450006FF001000861204600F088F9280608D5C1
:10346000300606D521686FF0800008612046FFF71E
:10347000D5FD680608D5700606D521686FF04000B6
:103480000861204600F0DAF9A8060AD5B00608D58A
:1034900021686FF0200008612046BDE8F041FFF789
:1034A000BEBDBDE8F081000010B586B00446142111
:1034B0006846FDF769FA0E492068884216D10D4822
:1034C0000021026842F010020260006800F0100063
:1034D00005904FF4007000900220CDE90101012019
:1034E000CDE9031069460448FEF778F906B010BD2F
:1034F000000001403038024000100240704770B5B3
:10350000044690F83C0000260D4601280FD001200B
:1035100084F83C006AB1042A1DD0082A2FD00C2A56
:103520003FD00126002084F83C00304670BD0220C8
:1035300070BD206801F032F82068816941F008010F
:1035400081612068816921F00401816120688169BD
:103550002A69114311E0206801F050F82068816960
:1035600041F4006181612068816921F48061816199
:10357000206881692A6941EA02218161D2E72068D5
:1035800001F072F82068C16941F00801C16120684A
:10359000C16921F00401C1612068C1692A69114330
:1035A00011E0206801F094F82068C16941F40061DD
:1035B000C1612068C16921F48061C1612068C1696D
:1035C0002A6941EA0221C161ACE710B5040003D0C9
:1035D00094F83D0010B107E0012010BD002084F8F0
:1035E0003C00204600F01EF8022084F83D00211D1A
:1035F000206800F047FF012084F8460084F83E0070
:1036000084F83F0084F8400084F8410084F84200C8
:1036100084F8430084F8440084F8450084F83D00B1
:10362000002010BD7047704710B50446022249B112
:1036300004290ED0082913D094F84100012816D08F
:10364000012010BD94F83E000128F9D184F83E20F5
:103650000FE094F83F000128F2D184F83F2008E001
:1036600094F840000128EBD184F8402001E084F870
:1036700041200122206800F071FF16492068164A97
:10368000884201D0904203D1436C43F40043436429
:103690002068884213D0B0F1804F10D00F49884283
:1036A0000DD00F4988420AD00E49884207D0904277
:1036B00005D00D49884202D00C49884204D1816866
:1036C00001F00701062903D0016841F00101016002
:1036D000002010BD00000140000401400004004033
:1036E00000080040000C004000400140001800406D
:1036F00030B504460D460068002200F02FFF194B3C
:1037000041F2111120688A10984202D0164B98425B
:1037100009D1036A0B4206D1036A134203D1436CF9
:1037200023F4004343642068036A0B4206D1016A14
:10373000114203D1016821F00101016001203DB176
:10374000042D08D0082D09D084F84100002030BD98
:1037500084F83E00FAE784F83F00F7E784F8400079
:10376000F4E70000000001400004014070B5044689
:103770000068B0F1804F01D1FEF762F92C49206852
:10378000884254D12B4DB5F856106868FEF740F9C1
:10379000294C012806D0B5F856106868FEF738F9AC
:1037A00018B10EE0E06C401C0AE023485C3090ED5C
:1037B000000AB5EEC00AF1EE10FA02D0E06C401E2D
:1037C000E06460780025012801D1607920B1206C87
:1037D000401E20640CD016E0A069401CA061A069C6
:1037E000216C884223D1134803F046FDA5610AE00D
:1037F000104803F03DFD0F4803F07CFC0D48D8381D
:10380000FFF732FDA5706079012810D1206CA0F57A
:10381000B85170390BD1074803F02AFD054803F071
:1038200069FC0448D838FFF71FFD6571256470BD39
:10383000000001404403002000000020704770B5E4
:10384000040004D094F84100002510B106E00120E6
:1038500070BD84F84050204600F024F8242084F8FD
:1038600041002068C16821F40051C160204600F089
:103870007BFF2068016921F4904101612068416962
:1038800021F02A0141612068C16841F40051C16002
:103890006564202084F8410084F8420065630020BC
:1038A00070BD000070B586B0064614216846FDF76D
:1038B0006BF820493068884239D11F4800250168DB
:1038C00041F480210160006800F4802005901A48CE
:1038D0001038016841F0080101600068694600F095
:1038E000080005904FF4407000900220CDE90105DA
:1038F00003200390072004901048FDF76FFF114C40
:103900000F4820604FF00060C4E901054014C4E98D
:10391000035080106561C4E9065025622046656247
:10392000FDF706FE08B1FDF70AFCF463A66306B0D6
:1039300070BD00000048004040380240000C0240CA
:1039400028600240D0030020FEE7000010B50E4CB6
:10395000012060710D4803F0D3FB01210B4803F0F7
:10396000B9FB9622A18A094803F024FC00224FF4F7
:1039700000510748FEF759F80022BDE81040202109
:103980000448FEF752B80000000000204403002065
:103990000018024000100240F0B500230A24302530
:1039A00037261F4611E000BFB4EB107F02D905EBAC
:1039B000107C01E006EB107C01F813C001EB430C16
:1039C00000015B1C8CF80170DBB29342ECD3F0BDBC
:1039D00038B5124D4FF40054002221462846FEF718
:1039E00024F84FF0FF33022269460D48FFF774F9BF
:1039F000012221462846FEF718F8BDF8000040BA1B
:103A0000C00804F0A1FE9FED071B53EC112B04F03E
:103A1000AFFE04F055FE80B238BD00000014024035
:103A200014020020000000000000D03F2DE9F04704
:103A300086B014216846FCF7A7FF454800240168BA
:103A400041F010010160016801F010010591016869
:103A500041F020010160016801F020010591016839
:103A600041F080010160016801F080010591016869
:103A700041F001010160016801F001010591016857
:103A800041F040010160016801F0400105910168C9
:103A900041F002010160016801F002010591016835
:103AA00041F0080101600068DFF8A88000F008001C
:103AB00005900022FC214046FDF7B7FFDFF8989003
:103AC0004FF42046002231464846FDF7AEFFDFF8AE
:103AD0008CA046F20107002239465046FDF7A5FFAB
:103AE000FC2000900125CDE901546946404603942D
:103AF000FDF774FE3F2000904FF40410CDE901055E
:103B000069464846FDF76AFE0096CDE901546946CC
:103B100048460394FDF762FE0097CDE901546946DB
:103B200050460394FDF75AFE002205210720FEF7B8
:103B30001FF80720FEF70EF8002205210920FEF7E6
:103B400017F80920FEF706F806B0BDE8F087000078
:103B500030380240001002400014024000180240B9
:103B60000F4810B50D4901604FF48271416000218A
:103B70008160C1604FF400720161C0E90512282222
:103B8000C0E90721416281620A21C162FEF7FEFF9E
:103B9000002801D072B6FEE710BD000000300140E1
:103BA0001402002010B596B000240F9410941194C4
:103BB000129413941C2108A81494FCF7E5FE20210C
:103BC0006846FCF7E1FE28482649C0E900144FF694
:103BD000FF71C0E90241046144618461FFF792FA18
:103BE00008B172B6FEE74FF480500F900FA91E483F
:103BF000FFF752FB08B172B6FEE71B48FFF7E5FC82
:103C000008B172B6FEE7139413A917481494FFF78E
:103C100031FA08B172B6FEE76020CDE908040A94D3
:103C20000B940C940D94002208A90F480E94FFF7F2
:103C300066FC08B172B6FEE700944FF40050CDE97F
:103C40000440029401940394694607480794FFF7DF
:103C5000E7F908B172B6FEE70348FFF725FC16B096
:103C600010BD0000000001406C02002010B586B0BD
:103C70000024174800940194029403940494134977
:103C8000059401604FF6FF71C0E90114611EC0E99F
:103C900003148461FFF736FA08B172B6FEE74FF4F9
:103CA0008050009069460A48FFF7F6FA08B172B6EC
:103CB000FEE7049404A906480594FFF7DBF9002801
:103CC00001D072B6FEE706B010BD0000000C004047
:103CD000B402002010B501220F49104801F0F0F99C
:103CE00008B1FDF72CFA0E490C4801F004FC08B1AC
:103CF000FDF725FA0B49094800F084FF08B1FDF7EC
:103D00001EFA064801F07AFC002803D0BDE81040F6
:103D1000FDF715BA10BD0000200100206C4D0020F9
:103D2000DC01002070010020FEE7FEE70148FEF7FD
:103D30009DB80000686400202DE9F04103680D463D
:103D400004461E6C03EB4511D1F8080B94F806E00D
:103D50004FF400474FF0200C04F29C42BEF1010FDB
:103D600009D0DFF898E0764539D1020432D500BF9A
:103D7000C1F8087B3FE0224B5FEA007E04D59E42FB
:103D800039D90004F4D436E05FEA806E02D5C1F878
:103D900008CB30E010F0280F2DD19E4201D900044D
:103DA000E6D405EBC50004EB8000D1F8101BD0F879
:103DB0007432C1F31201591AC0F8681200F5157077
:103DC000ADB903691BB1C2681144C1600FE00121A4
:103DD00020680AE080060AD5C1F808CB07E035B9AB
:103DE000D4F8640218B90021184601F081FFE9B245
:103DF0002046FDF723FF0020BDE8F0810A31544F33
:103E00000A30544F2DE9F84F0E4601EBC60100EB86
:103E1000810481460568D4E909101434884202D926
:103E20000120BDE8F88F081AA168814200D2084637
:103E3000C01C870805EB46181BE000BFA0EB010A79
:103E4000A068504500D282460AF10300870899F81D
:103E5000060000901FFA8AF3F2B22846E16802F0E9
:103E600085FAE16801EB0A00E060616901EB0A0094
:103E70006061D8F8180980B2B84205D3D4E90401CA
:103E8000814201D20028D9D1D4E90401884208D85E
:103E900006F00F0101208840D5F834188143C5F899
:103EA00034180020BDE7F8B5044640684FF482732B
:103EB000984221D1A0684FF48065B0F5004F01D041
:103EC000A8420AD12068066826F0400606606068AD
:103ED000984211D1A068A8420ED000920B46002251
:103EE0008021204600F044F8002804D0606D40F0A6
:103EF000200060650320F8BD00920B4600220121DE
:103F0000EFE70000F8B515460E460B460092044652
:103F10000122022100F02CF8A0B9134813490068CF
:103F2000B0FBF1F04FF47A71484300906068B0F54F
:103F3000827F0DD13346002280212046009500F07B
:103F400017F870B1606D40F0200060650320F8BD87
:103F5000009830B1401E009020688068C043000681
:103F6000F6D50020F8BD00009C00002000366E0150
:103F70002DE9F8431E46914688460446089DFDF704
:103F800059FD401B351AFDF755FD074625480068C9
:103F9000C0F3CB30684338E0701C37D0FDF74AFDE2
:103FA000C01BA84203D215B1009860B32CE0206872
:103FB000416821F0E00141606068B0F5827F0BD17B
:103FC000A068B0F5004F02D0B0F5806F04D1206832
:103FD000016821F040010160A06AB0F5005F09D1DD
:103FE0002068016821F4005101602068016841F4F3
:103FF00000510160012084F85100002084F8500035
:104000000320BDE8F8830025401E009020688168E9
:1040100038EA010004D000214945BDD10020F0E775
:104020000121F9E79C0000200178407841EA002056
:1040300070470000FFF74EFE704FDFF8C491DFF8C5
:10404000C4A14FF0FF3600254FF40058A7F16404D7
:1040500032460021012002F05DFB206D01280FD0C7
:10406000022862D00328F3D1627A217AE07900F045
:1040700057F9E079E081207A6082607AA082E7E7F0
:104080006078012807D0E0780128E1D15E4803F08C
:1040900031F86570DCE7E57009213868FCF7E2FF6C
:1040A0006571594803F02CF80620E06157484562D5
:1040B0000120A0645448D838FFF796F800215248F0
:1040C00003F008F8628AA18A4F4803F073F8207958
:1040D000401C20714C48FDF759F9A5612064324617
:1040E0000021012002F016FB09217868FCF7BAFFD5
:1040F000DFF808B14448ABF1080BD8389BED000A53
:10410000BCEEC00A84ED110AFFF7AEF83E4803F09A
:10411000AFF83D4802F0EEFF9FED3D0A65708BED74
:10412000000AE5642564A56192E7606D01282BD043
:1041300002288DD109213869FCF794FFA06DB0B336
:10414000012885D1304802F0DBFF00212E4802F023
:10415000C1FFB2EE0E0A2C4802F0D8FF0022414601
:104160004846FDF762FC002220215046FDF75DFC29
:104170002548D838FFF738F82348FDF707F92064B9
:10418000606A401C606263E70921F868FCF76AFF17
:10419000A06D68B10128C7D1012241464846FDF70C
:1041A00044FC012220215046FDF73FFC50E706E089
:1041B000002241464846FDF738FC0022F2E712484B
:1041C00002F09EFF0121104802F084FFB2EE0E0AB9
:1041D0000D4802F09BFF002241464846FDF725FCB2
:1041E000002220215046FDF720FC0748D838FEF772
:1041F000FBFF0548FDF7CAF8206429E764000020AA
:10420000001802400010024044030020000001405A
:1042100000000000064D4FF0FF342246002102202E
:1042200002F078FA28780128F7D1FFF78FFBF4E73E
:10423000000000200126144C144FDFF85490002594
:104240004FF40058206D0128FCD16089E189884233
:1042500002D2A06D01280BD0002220213846FDF7A4
:10426000E4FB002241464846FDF7DFFB2562E9E713
:10427000012220213846FDF7D8FB0122414648465D
:10428000FDF7D3FB2662DDE70000002000100240AE
:104290000018024008B50F4CFFF79AFBA081DC2004
:1042A00002F0C2F9A0896081606A401C6062206DE2
:1042B000012802D0206D0228EED1628906A168464D
:1042C000FCF7EAF86846FCF79FFA81B26846FCF70B
:1042D000C9FEE1E7000000202A313A323A25642382
:1042E000000000000D4C00274FF4487504F15C06F7
:1042F000A079012802D102F04FF8A771A06C012823
:10430000F6D160780128F3D1E06C90FBF5F000EE77
:10431000100AB8EEC00A86ED000AE9E700000020A6
:1043200070B586B015460C460646FDF713FA022016
:1043300004900B2002900120002103900091684618
:10434000FDF772F9002213460E491046FDF7C4F935
:104350000C4900233246891C1846FDF7BDF909496E
:1043600000232246091D1846FDF7B6F9054900232A
:104370002A46891D1846FDF7AFF9FDF7A3F906B0E7
:1043800070BD000000000E0810B54FF0E02000697D
:1043900003F0FAFD012803D0BDE8104003F036BA5F
:1043A00010BD000030B593B030216846FCF7ECFA40
:1043B00014210CA8FCF7E8FA1D480025016841F01B
:1043C00080510160006800F0805011901948016828
:1043D00021F4404141F4804101600068022400F46E
:1043E0004040119001200090000401908001CDE92F
:1043F0000640042008904820CDE9090403200B90D2
:104400006846FEF70DFA08B172B6FEE70CA90F2058
:1044100081E831004FF48050CDE90F0502210CA84E
:10442000FEF7EEF8002801D072B6FEE713B030BDFB
:1044300040380240007000400248016841F47001B9
:104440000160704788ED00E00148FEF794BF00006E
:104450006C0200200148FEF78EBF00006C020020B5
:104460000148FEF788BF00006C0200200148FEF7FB
:1044700082BF00006C0200200148FEF77CBF0000F4
:1044800030040020F0B50268294C2A4D2A4E2B4FEB
:104490002B4B4FF0804CA04209D0604507D0A8427A
:1044A00005D0B04203D0B84201D0984204D122F0E6
:1044B000700E4A6842EA0E02A0421BD0604519D035
:1044C000A84217D0B04215D0B84213D0984211D0AC
:1044D0001C4DA8420ED01C4DA8420BD01B4DA8422B
:1044E00008D01B4DA84205D01A4DA84202D01A4D43
:1044F000A84203D122F44075CA682A434D6922F0CC
:1045000080022A4302608A68C2620A688262A0420C
:1045100001D0984201D1096901630121416101691A
:10452000C90703D0016921F001010161F0BD00005C
:10453000000001400004004000080040000C004062
:104540000004014000400140004401400048014097
:1045500000180040001C00400020004010B501F091
:104560001F030121046A99408C430462016A9A4046
:104570001143016210BD10B5846842EA032224F49D
:104580007F440A432243826010BD826822F0700299
:104590000A4342F00701816070470000F0B5036AEA
:1045A000026A22F00102026242688469124E24F01B
:1045B00073050C682C4323F002058B682B430D4DCB
:1045C000A84201D0B04205D123F00807CB683B4395
:1045D00023F00403A84201D0B04205D14D6922F472
:1045E000407215438A692A43426084614968416385
:1045F0000362F0BD0000014000040140F0B5026A12
:10460000036A23F010030362436884690D6824F48D
:10461000E64444EA05248D6822F0200242EA0512AD
:104620000F4D104EA84201D0B04206D1CF6822F003
:10463000800242EA071222F04002A84201D0B042B2
:1046400007D14D6923F4406343EA85038D6943EA4A
:10465000850343608461496881630262F0BD0000A4
:104660000000014000040140F0B5026A036A23F42F
:10467000807303624368C46922F4007224F07305F6
:104680000C68124E2C438D6842EA05220E4DA8425A
:1046900001D0B04206D1CF6822F4006242EA07227C
:1046A00022F48062A84201D0B04207D14D6923F4C0
:1046B000405343EA05138D6943EA05134360C4611F
:1046C0004968C1630262F0BD00000140000401407E
:1046D00030B5046A026A22F4805202624268C369F9
:1046E0000D6823F4E64343EA05238D6824F400545F
:1046F00044EA0534084DA84202D0084DA84204D12E
:104700004D6922F4804242EA85124260C3614968E1
:104710000164046230BD000000000140000401405B
:1047200010B5036A046A24F001040462846924F069
:10473000F00444EA021423F00A020A43846102628C
:1047400010BD10B5036A046A24F010040462846981
:1047500023F0A00324F4704444EA023243EA011136
:104760008261016210BD000070B5044600680169F5
:10477000E26821F44051114301612169A068E269B6
:1047800008436169114308432168CA6849F20C6310
:104790009A430243CA6020684169A26921F44071CA
:1047A0001143416131492068884202D03049884232
:1047B00002D1FDF7F5FF01E0FDF7E2FFE26900231A
:1047C000192164253226B2F5004F626828D0A0FB7B
:1047D0000101930F9200FBF7E7FD0146B0FBF5F0F6
:1047E0006FF01802504301EB800006EB0010B0FBA5
:1047F000F5F000F0F002B1FBF5F002EB0012B1FBB6
:10480000F5F06FF01803584301EB800006EB001041
:10481000B0FBF5F000F00F0021681044886070BD17
:10482000A0FB010192185B41FBF7BEFD0146B0FB06
:10483000F5F00201B1FBF5F06FF01803584301EBFE
:10484000800006EBC000B0FBF5F000F0F80002EBD2
:104850004002B1FBF5F0584301EB800006EBC000CD
:10486000B0FBF5F000F00700D6E7000000100140B3
:10487000001401402DE9F0410C46D0F8D412D0F8D4
:10488000C82200EB8101D1F8C01229B304F00F0651
:1048900006EB860300EB83050027AB694BB106EB03
:1048A000C60602EB8602D269B3FBF2F602FB1632B1
:1048B000A2B1C1F81472D0F8D42200EB8200D0F873
:1048C000C40203692BB1D1F80802224601F5047134
:1048D00098470020BDE8F0810320FBE700231A463B
:1048E0002146AF6100F0E8FDF3E770B50546D0F86A
:1048F000D40205EB8000D0F8C04294B1284600F005
:10490000B7FCC4F80C02D5F8D412D4F8040205EBB5
:104910008101D1F8C412CA6804F5037190470020E0
:1049200070BD032070BD000070B5224D044629788B
:1049300000F0E2FB2878002600F00F0000EB80007A
:1049400004EB800086846978204600F0D5FB687807
:1049500000F00F0000EB800004EB8000A0F8646121
:10496000A978204600F0C8FBA87800F00F0000EB03
:10497000800004EB80008684C684D4F8D40204EB63
:104980008000D0F8C01299B1D0F8C40240688047C6
:10499000D4F8D40204EB8000D0F8C00200F0AFFFDE
:1049A000D4F8D40204EB8000C0F8C062C4F8BC6242
:1049B000002070BD8801002010B5D0F8D41200EBA3
:1049C0008100D0F8C04284B1D0F8C41259B194F833
:1049D0000002FF2807D08B6894F8012221469847EF
:1049E000FF2084F80002002010BD032010BD00004D
:1049F0000A210180004870478C01002070B50646EE
:104A000082210C4800F086FA05460121094800F091
:104A100081FA04468121074800F07CFA0DB110218B
:104A2000A971402104B1A18000B181804320308070
:104A3000004870BD9801002070B5064682210D48DF
:104A400000F068FA054601210A4800F063FA0446BE
:104A50008121084800F05EFA0DB11021A9714FF4D0
:104A6000007104B1A18000B18180432030800148F1
:104A700070BD00009801002070B5064682210C48E8
:104A800000F048FA05460121094800F043FA0446BF
:104A90008121074800F03EFA0DB11021A971402193
:104AA00004B1A18000B1818043203080004870BDF6
:104AB000980100202DE9F04704464FF40775284679
:104AC00000F01EFF06004FF0000863D02946FBF7F8
:104AD0005BFFD4F8D4023C4D04EB80004FF010098A
:104AE000C0F8C062C4F8BC62207C4FF4007A012791
:104AF000F0B3402302222978204600F028FC2878D1
:104B0000402300F00F0000EB800004EB800087845E
:104B100002226978204600F01AFC6878082300F029
:104B20000F0000EB800004EB80000322A0F864710A
:104B3000A978204601F00F0101EB810104EB81010E
:104B4000A1F82690A97800F002FCA87800F00F00E8
:104B500000EB800004EB80008784C6F80482D4F860
:104B6000D402474604EB8000D0F8C402006800E09D
:104B700018E006F5017680473761776132687AB1CF
:104B8000207CF8B140236978204600F0ECFB00203F
:104B9000BDE8F087D4F8D41204EB8101C1F8C082DB
:104BA0000220F5E7534602222978204600F0CFFB89
:104BB0002878534600F00F0000EB800004EB8000E3
:104BC0008784A5E75346DEE78801002010B5D0F8BA
:104BD000D41200EB8101D1F8C01259B1027C084C0B
:104BE000002AD1F8042207D04023617800F0BBFBF3
:104BF000002010BD032010BD4FF40073F5E7000046
:104C00008801002039B1D0F8D42200EB8200C0F82E
:104C1000C4120020704703207047D0F8D42200EB64
:104C20008200D0F8C00218B1C0F80412002070470A
:104C300003207047D0F8D43200EB8300D0F8C002D4
:104C400028B1C0F81022C0F80812002070470320D5
:104C500070472DE9FC410646D0F8D4020C4606EB1D
:104C600080000021D0F8C0728DF80010ADF804105B
:104C70000D4637B1217811F060022FD0202A4BD198
:104C800002E00320BDE8FC81E288F2B109060DD5FF
:104C9000D0F8C40263783946D0F808C01846E04717
:104CA000E288072A00D9072239462DE0607887F884
:104CB0000002E088402800D34020C2B287F80122D9
:104CC0003946304600F081F82BE0D0F8C402637812
:104CD0000022866821461846B04722E0607830B14D
:104CE00001281ED00A2809D00B2815D110E096F80B
:104CF0009C02032810D1022201A905E096F89C022B
:104D0000032809D101226946304600F078F808E00E
:104D100096F89C02032804D02146304600F04AF859
:104D200003252846AEE7000010B5D0F8D41200EBFA
:104D30008101D1F8C02201211AB1D2F8143213B185
:104D400016E0032010BD0121C2F814120949D2F85F
:104D50001032097801F00F0404EB840400EB8404A2
:104D6000A361D2F81032D2F8082200F0A5FB00218E
:104D7000084610BD8801002010B5D0F8B8220024E4
:104D80005268904700B10324204610BD00207047B0
:104D900000207047134610B50A46002100F0E3FAE0
:104DA000002010BD134610B50A46002100F084FB18
:104DB000002010BD10B50446802100F05EFB2046A7
:104DC000BDE81040002100F058BB10B50323C0F827
:104DD0009432C0F858211346C0F85C210A460021DD
:104DE00000F0C1FA002010BD10B50521C0F89412E2
:104DF00000231A46194600F0B6FA002010BD10B57F
:104E00000223C0F8943282611346C2610A4600212F
:104E100000F052FB002010BD10B50421C0F8941220
:104E200000231A46194600F047FB002010BDF8B5D4
:104E300004460020ADF8000048880D46010A082904
:104E40005FD2DFE801F05E0409175E5E3C45D4F8EE
:104E5000B412207C0A6819E0207C02260028D4F8CD
:104E6000B80205D0C16A684688470146467039E0F5
:104E7000816AF8E7C0B2062843D2DFE800F0030AEF
:104E80001014181CD4F8B402426805E06946904733
:104E90001CE0D4F8B402826892B3207CF6E7D4F820
:104EA000B402C268F8E7D4F8B4020269F4E7D4F8AF
:104EB000B4024269F0E7D4F8B4028269ECE7207CDE
:104EC000F0B9D4F8B802416B68468847014609E05A
:104ED000207CA8B9D4F8B802016B6846884701461F
:104EE00007204870EA888AB1BDF8000040B18242CC
:104EF00000D90246ADF800202046FFF780FFF8BD3C
:104F0000FFE729462046FFF755FFF8E72046FFF761
:104F100083FFF4E778B50E46428801780025044601
:104F20008A4212D9ADF800100AE0694600F019F87B
:104F30004178052904D181780546B14205D0002584
:104F40006188BDF800209142EFD8284678BD01461F
:104F5000002002E0401CC0B2491C0A78002AF9D1A6
:104F600070470A8803781A440A8001780844704719
:104F700070B516460D46002820D00446FFF7E7FF1F
:104F8000022101EB40014FF40070814204D8204619
:104F9000FFF7DDFF4000801C308030782870032050
:104FA00068700220002206E02954401CC0B22A5436
:104FB000401CC0B2641C21780029F5D170BD0100ED
:104FC0004FF0000004D0012901D0022901D00320B4
:104FD000704701207047000010B50A46024903A03F
:104FE000FFF7C6FF004810BD48500020434443204F
:104FF000436F6E66696700001220088000487047A2
:105000004001002010B50A46024903A0FFF7B0FF97
:10501000004810BD4850002043444320496E746549
:1050200072666163650000000420088000487047D4
:105030003C01002010B50A46024903A0FFF798FF83
:10504000004810BD4850002053544D6963726F658D
:105050006C656374726F6E696373000010B50A4605
:10506000024903A0FFF784FF004810BD485000200C
:1050700053544D3332205669727475616C20436FFE
:105080006D506F727400000010B51A2008800A4835
:105090000168001D0468001D0068081809D0082276
:1050A0000649FEF779FC0549042210312046FEF737
:1050B00073FC0248801E10BD107AFF1F56010020AD
:1050C00078B10023C0F8B832C0F8C432C0F8D0328A
:1050D00009B1C0F8B412012180F89C12027000F0EE
:1050E000CBB80320704710B5D0F8C802FCF7E8FD34
:1050F000BDE81040FFF763BF10B5D0F8C802FCF759
:10510000BAFDBDE81040FFF75ABF2DE9F041174640
:105110000446002521B194F89C02032842D04CE0BB
:10512000D4F8941204F11400022935D1D0E90263B5
:105130009E4206D9F21A826039462046FFF732FEB7
:105140000FE0B34214D14068984211D3D4F89812BA
:1051500088420DD2002211462046FFF723FEC4F8F4
:10516000985200231A461946204600F0FCF813E036
:1051700094F89C02032808D1D4F8B802C16821B180
:10518000C4F8D452C168204688478021204600F0E8
:1051900074F92046FFF728FE94F8A00268B184F85D
:1051A000A0520AE0D4F8B802426932B1C4F8D4522D
:1051B000426920469047002800D10020BDE8F081D8
:1051C00070B513460446002221B194F89C020328CE
:1051D00030D03AE0D4F8941204F5AA70032934D1FF
:1051E000D0E902518D420AD96A1A82600846824289
:1051F00000D3024619462046FFF7CCFD25E094F87F
:10520000AA0210F01F0003D0012802D0022800D00B
:10521000002294F89C02032808D1D4F8B80201694E
:1052200021B1C4F8D4220169204688472046FFF7FF
:10523000F3FD0AE0D4F8B802836933B1C4F8D4228C
:10524000826920469047002800D1002070BD0020D0
:10525000704710B50024012180F89C12D0F8B822C4
:1052600022B152680179904700B10324204610BD55
:10527000D0F8C802FCF751BD10B50178012929D139
:1052800015490222C1F8E004C0F8C81213480860AA
:1052900006200871CA71002088714A728872C8722B
:1052A00008738873C87308740846FDF795F808B149
:1052B000FBF745FF4FF400710748FCF78CFC802298
:1052C00000210548FCF78BFC4FF4BA72012102481B
:1052D000FCF785FC002010BD68640020000004403D
:1052E0000A0601F07F01D0F8C80201EBC10100EB12
:1052F000810001D5807D704790F85602704710B547
:10530000D0F8D42200EB8202D2F8B82222B190F871
:105310009C32032B02D004E0032010BD126A02B1BC
:105320009047002010BD10B5D0F8D42200EB8202C7
:10533000D2F8B82222B190F89C32032B02D004E0BC
:10534000032010BD526A02B19047002010BD10B575
:105350001C461346D0F8C8022246FCF7E7FCBDE81D
:105360001040FFF72CBE10B5D0F8C802FCF70FFDB7
:10537000BDE81040FFF723BE2DE9F04100260125CE
:10538000044680F89C52C4F894626660C4F8A46233
:1053900080F8A062D0F8B80230B1426822B1002192
:1053A0002046904700B103260022402311462046A4
:1053B000FFF7CDFF4027A4F864513B46002280212F
:1053C0002046C4F86071FFF7C2FFA584304627620B
:1053D000BDE8F08190F89C12042903D190F89D1249
:1053E00080F89C120020704710B590F89C12032999
:1053F00005D1D0F8B81211B1C96901B188470020B0
:1054000010BD01740020704710B5D0F8C802FDF738
:10541000A3F8BDE81040FFF7D2BD70B5044600F216
:10542000AA20054600F051F80120C4F89402B4F80F
:10543000B002C4F8980294F8AA0210F01F010AD032
:1054400001290ED0022912D000F080012046BDE8CB
:10545000704000F012B829462046BDE8704000F0C8
:10546000CFB829462046BDE8704000F00FBA294663
:105470002046BDE8704000F059B910B5D0F8C80218
:10548000FCF7A1FCBDE81040FFF799BD10B5D0F8BE
:10549000C802FDF77BF8BDE81040FFF790BD90F81B
:1054A0009C12042903D090F89C1280F89D120421CC
:1054B00080F89C120020704710B5D0F8C802FCF7A5
:1054C000BBFCBDE81040FFF77ABD70B5054611F88A
:1054D000010B2870087868704C1C2046FEF7A4FD6C
:1054E0006880A41C2046FEF79FFDA880A01CFEF744
:1054F0009BFDE88070BD38B504460020ADF8000083
:10550000A1B1C4F8B812D4F8D40204EB8000D0F8EA
:10551000B802C16A19B168468847C4F8D002D4F805
:10552000D802401CC4F8D802002038BD032038BD82
:1055300002460020D2F8B832002B02D01B68104679
:10554000184770472DE9F04188462B4E8978002591
:1055500004463170012906D941462046FFF72AFC4E
:105560000320BDE8F08194F89C02022702280CD0A9
:1055700003281DD041462046FFF71CFC3178204609
:10558000FFF7FAFB03252846EBE789B32046616065
:10559000FFF7CEFF050004D041462046FFF70AFC86
:1055A0001DE02046FFF738FC032084F89C02EAE760
:1055B000C1B1606888421BD0C1B22046FFF7DCFB56
:1055C000317820466160FFF7B3FF050010D04146F7
:1055D0002046FFF7EFFB21792046FFF7CDFB84F84B
:1055E0009C72D0E784F89C7220466160FFF7C4FB90
:1055F0002046FFF711FCC6E784010020FFF746BFF5
:105600002DE9F0410A78002512F060020CD0202A22
:1056100001D0402A7DD1D0F8D42200EB8202D2F80A
:10562000B8229268904731E04B78002201260A2B7D
:105630006FD2DFE803F041666E586E08056E2D29C3
:10564000FFF7F5FB67E004468888D8B9C888C8B971
:105650004888802816D200F07F0794F89C0203281F
:1056600010D084F89E7239462046FFF7CDFE2046C2
:10567000FFF7D2FB1FB1022084F89C024BE084F8B4
:105680009C6248E0204644E0FFF75CFF054642E0AC
:10569000CB88012B3DD190F89C32012B04D0022BFA
:1056A00002D0032B35D104E08260012200F1080111
:1056B00016E00122011D13E090F89C22012A03D07C
:1056C000022A01D0032A24D1CA88022A21D1C66025
:1056D000D0F8A41209B10321C160022200F10C012B
:1056E000FFF78DFB17E04A88012A02D0022A03D077
:1056F0000FE0C0F8A46216E08988090A80F8A012B9
:1057000011E090F89C32012B08D0022B06D0032B1D
:1057100004D0FFF74FFB2846BDE8F08149880129F6
:10572000F9D1C0F8A422FFF777FBF4E72DE9F041A7
:10573000054608780C790E464FF0000810F060001E
:105740000BD0202801D040286AD121462846FFF7F7
:105750001DFBFF2800D0D8B395E07078C8B30128AE
:1057600024D003285CD195F89C02022802D003289B
:1057700056D10CE0002C53D0802C51D02146284625
:10578000FFF77BFE80212846FFF777FE7BE07088DD
:1057900040B93CB1802C05D0C88818B921462846AC
:1057A000FFF76BFE2846FFF737FB6CE095F89C028D
:1057B0000228DFD0032863D1708880BB600603D045
:1057C00021462846FFF78FFC2846FFF725FBBCE75C
:1057D00000E00AE0C5F8D402D5F8B8028268F2B158
:1057E00031462846904780464DE095F89C020027B8
:1057F000022802D0032843D113E00CB1802C3FD102
:10580000200604F07F0000EB800005EB800101D54D
:10581000143101E001F5AA7102220F602CE032E0A0
:105820002EE0200604F00F0000EB800005EB800066
:1058300009D5808C20B304F07F0000EB800005EBDD
:10584000800614360AE0B0F86401C8B104F07F00A5
:1058500000EB800005EB800606F5AA764CB1802CA3
:1058600007D021462846FFF73BFD10B101203060EC
:1058700000E03760022231462846FFF7C0FA02E016
:105880002846FFF797FA4046BDE8F08170B5054617
:10589000087800240E4610F0600003D0202801D0C4
:1058A000402827D195F89C02012803D0022801D076
:1058B00003281FD1B088C1B201291AD8C1B2284625
:1058C000FFF766FAFF280CD058B9D5F8B8128A68E5
:1058D0003AB1C5F8D4028A68314628469047044652
:1058E00000E00324F088204307D12846FFF794FA0C
:1058F00003E031462846FFF75DFA204670BD704749
:10590000004870474862002070B50A78012302F011
:105910000F054E78AB401B4CD0F81C58012E17D009
:1059200045EA0343C0F81C3800EB4210D0F8002BC6
:1059300012040BD4D0F8002B0B890979C3F30A03A6
:105940001A4344EA81410A43C0F8002B002070BD8D
:105950009BB21D43C0F81C5800EB4210D0F8003930
:105960001B04F3D4D0F800390D890979C5F30A0571
:1059700089042B4341EA82510B432343C0F8003989
:10598000E4E7000000800010D0F800196FF30A016E
:10599000C0F80019D0F8041841F48071C0F8041858
:1059A0000020704770B50D460446C2F307210498E5
:1059B0001E4601291BD0E06840F04000E060204610
:1059C00000F032F8C6F307210029A16B26D021F49C
:1059D0008031A163C5F30741012907D1A16841F0D6
:1059E0000601A160A16841F02001A16070BDA16B1A
:1059F00021F48031A163E1680A4A1140E160E16865
:105A000021F44011E160C0B2012803D1E06840F404
:105A10008010E060204600F007F8DBE741F48031B9
:105A2000D7E70000BFFFBDFF08B500214FF070624F
:105A30000091009B5B1C009393420CD80369002BE0
:105A4000F7DA0091016941F0010101610099491CF7
:105A50000091914201D9032008BD0169C907F5D120
:105A6000002008BD30B54C780A78012300EB4212C3
:105A7000012C2CD0D2F8004B002C0BDAD2F8004BC2
:105A800044F00064C2F8004BD2F8004B44F080446C
:105A9000C2F8004BD0F83C580C7804F00F0403FA1D
:105AA00004F425EA0444C0F83C48D0F81C480978BE
:105AB00001F00F018B4024EA0341C0F81C18D2F812
:105AC000000B19490840C2F8000B002030BDD2F885
:105AD0000049002C0BDAD2F8004944F00064C2F807
